:100000000C945D000C94CB030C94A4030C94850019
:100010000C9485000C9485000C9485000C9485004C
:100020000C9485000C9485000C9485000C9485003C
:100030000C9485000C9485000C9485000C9485002C
:100040000C945A030C9485000C9418040C94F2033D
:100050000C9485000C9485000C9485000C9485000C
:100060000C9485000C9485000000000024002700FB
:100070002A0000000000250028002B0004040404CE
:100080000404040402020202020203030303030342
:10009000010204081020408001020408102001021F
:1000A00004081020000000080002010000030407FB
:1000B0000000000000000000150711241FBECFEF54
:1000C000D8E0DEBFCDBF11E0A0E0B1E0EAE5F3E1AA
:1000D00002C005900D92A63FB107D9F722E0A6EF26
:1000E000B1E001C01D92A13BB207E1F710E0CDE500
:1000F000D0E004C02197FE010E94A009CC35D107B1
:10010000C9F70E944A040C94AB090C940000E091DA
:100110001402F09115020190F081E02D682F84E126
:1001200092E009943FB7F8948091100290911102E7
:10013000A0911202B091130226B5A89B05C02F3FD3
:1001400019F00196A11DB11D3FBFBA2FA92F982FFD
:100150008827820F911DA11DB11DBC01CD0142E078
:10016000660F771F881F991F4A95D1F708950F933F
:100170001F9390910A0281E0911180E080930A021E
:100180000E9492000091F6011091F7012091F80170
:100190003091F901DC01CB01801B910BA20BB30B59
:1001A0008093060290930702A0930802B09309027D
:1001B0000E9492006093F6017093F7018093F8011A
:1001C0009093F901609106027091070280910802F4
:1001D000909109020E9455089B01AC016091FA01BF
:1001E0007091FB018091FC019091FD010E944307F9
:1001F0006093FA017093FB018093FC019093FD01E1
:100200008091020290910302A0910402B091050234
:100210000196A11DB11D8093020290930302A09349
:100220000402B09305021F910F9108950895CF9293
:10023000DF92EF92FF920F931F93CF93DF936C01A6
:100240007A018B01C0E0D0E0CE15DF0589F0D8013E
:100250006D918D01D601ED91FC910190F081E02D21
:10026000C6010995892B11F47E0102C02196ECCFBD
:10027000C701DF91CF911F910F91FF90EF90DF9019
:10028000CF900895089580E090E00895FC01538D8B
:10029000448D252F30E0842F90E0821B930B541760
:1002A00010F0CF96089501970895FC01918D828DED
:1002B000981761F0828DDF01A80FB11D5D968C91BA
:1002C000928D9F5F9F73928F90E008958FEF9FEFC5
:1002D0000895FC01918D828D981731F0828DE80F81
:1002E000F11D858D90E008958FEF9FEF0895FC013B
:1002F000918D228D892F90E0805C9F4F821B910908
:100300008F739927089584E192E00E94770121E09C
:10031000892B09F420E0822F0895FC01848DDF01F0
:10032000A80FB11DA35ABF4F2C91848D90E0019668
:100330008F739927848FA689B7892C93A089B18957
:100340008C9180648C93938D848D981306C0028861
:10035000F389E02D80818F7D80830895EF92FF9255
:100360000F931F93CF93DF93EC0181E0888F9B8DD8
:100370008C8D981305C0E889F989808185FD24C09A
:10038000F62E0B8D10E00F5F1F4F0F731127E02E1D
:100390008C8DE8120CC00FB607FCFACFE889F989FA
:1003A000808185FFF5CFCE010E948D01F1CF8B8D2D
:1003B000FE01E80FF11DE35AFF4FF0820B8FEA892F
:1003C000FB898081806207C0EE89FF896083E889AC
:1003D000F98980818064808381E090E0DF91CF9112
:1003E0001F910F91FF90EF900895CF93DF93EC0151
:1003F000888D8823C9F0EA89FB89808185FD05C045
:10040000A889B9898C9186FD0FC00FB607FCF5CF7E
:10041000808185FFF2CFA889B9898C9185FFEDCFC6
:10042000CE010E948D01E7CFDF91CF91089580E04A
:1004300090E0892B29F00E94830181110C94000027
:100440000895009769F0FC0101900020E9F73197C9
:10045000AF01481B590BBC0184E192E00C941701D9
:1004600080E090E008950C9421028F929F92AF92C9
:10047000BF920F931F93CF93DF93CDB7DEB7A197B2
:100480000FB6F894DEBF0FBECDBF19A2423008F4FC
:100490004AE08E010F5D1F4F842E912CA12CB12CB0
:1004A000A50194010E947E09E62FB901CA010150FD
:1004B0001109EA3014F4E05D01C0E95CD801EC9365
:1004C000232B242B252B61F7C8010E942102A19622
:1004D0000FB6F894DEBF0FBECDBFDF91CF911F9155
:1004E0000F91BF90AF909F908F9008954F925F9221
:1004F0006F927F928F929F92AF92BF92CF92DF9234
:10050000EF92FF926B017C01B42E9B01AC010E9423
:100510007909882319F086E191E027C02601370187
:10052000E89477F82FEF3FEF4FE75FE7C301B201A1
:100530000E94790981110DC02FEF3FEF4FE75FE770
:10054000C301B2010E94AF0718161CF48AE191E0C2
:100550000CC02FEF3FEF4FE75FE4C701B6010E94E9
:100560000709181684F48EE191E0FF90EF90DF9078
:10057000CF90BF90AF909F908F907F906F905F9043
:100580004F900C9421022FEF3FEF4FE75FECC70134
:10059000B6010E94AF0787FDE6CF20E030E0A90159
:1005A000C701B6010E94AF0787FF09C08DE20E9414
:1005B00087004C01F7FAF094F7F8F09402C0812C10
:1005C000912CA12C60E070E080E09FE3AB1441F03F
:1005D00020E030E040E251E40E94B407A394F6CF5B
:1005E0009B01AC01C701B6010E9443072B013C01EE
:1005F0000E9426086B017C010E9455089B01AC01FA
:10060000C301B2010E9442072B013C014AE0C7012D
:10061000B6010E9435027C01E80CF91CBB2029F0D0
:100620008EE20E948700E80EF91EDB2CDD2021F10E
:1006300020E030E040E251E4C301B2010E940C0925
:100640002B013C010E9426084B01A12CB12C4AE051
:10065000C501B4010E943502E80EF91EC501B401BE
:100660000E9455089B01AC01C301B2010E944207E0
:100670002B013C01DA94DACFC701FF90EF90DF90B5
:10068000CF90BF90AF909F908F907F906F905F9032
:100690004F900895CF93DF930E947602EC0182E29F
:1006A00091E00E9421028C0F9D1FDF91CF91089550
:1006B0000E94A6091F920F920FB60F9211242F933A
:1006C0003F938F939F93AF93BF9380910C02909130
:1006D0000D02A0910E02B0910F0230910B0223E0A7
:1006E000230F2D3720F40196A11DB11D05C026E86A
:1006F000230F0296A11DB11D20930B0280930C02C3
:1007000090930D02A0930E02B0930F0280911002FD
:1007100090911102A0911202B09113020196A11DB5
:10072000B11D8093100290931102A0931202B09316
:100730001302BF91AF919F918F913F912F910F9095
:100740000FBE0F901F9018951F920F920FB60F9229
:1007500011242F933F934F935F936F937F938F93C6
:100760009F93AF93BF93EF93FF93E0910201F091BA
:1007700003010995FF91EF91BF91AF919F918F91E7
:100780007F916F915F914F913F912F910F900FBE8D
:100790000F901F9018951F920F920FB60F92112471
:1007A0002F933F934F935F936F937F938F939F9379
:1007B000AF93BF93EF93FF93E0910001F09101019C
:1007C0000995FF91EF91BF91AF919F918F917F918B
:1007D0006F915F914F913F912F910F900FBE0F90AE
:1007E0001F9018951F920F920FB60F9211242F93FE
:1007F0003F934F935F936F937F938F939F93AF93A9
:10080000BF93EF93FF9384E192E00E948D01FF91EB
:10081000EF91BF91AF919F918F917F916F915F9178
:100820004F913F912F910F900FBE0F901F901895F1
:100830001F920F920FB60F9211242F938F939F93B5
:10084000EF93FF93E0912402F09125028081E091E3
:100850002A02F0912B0282FD12C0908180912D021C
:100860008F5F8F7320912E02821751F0E0912D023D
:10087000F0E0EC5EFD4F958F80932D0201C08081EA
:10088000FF91EF919F918F912F910F900FBE0F903D
:100890001F901895789484B5826084BD84B581607A
:1008A00084BD85B5826085BD85B5816085BD80913B
:1008B0006E00816080936E001092810080918100B3
:1008C00082608093810080918100816080938100AB
:1008D000809180008160809380008091B10084606D
:1008E0008093B1008091B00081608093B0008091CE
:1008F0007A00846080937A0080917A00826080938D
:100900007A0080917A00816080937A0080917A00E9
:10091000806880937A001092C100CDE9D0E0FE019A
:10092000249109E810E0F8018491882399F090E07F
:10093000880F991FFC01E859FF4FA591B491FC0164
:10094000EE58FF4F859194918FB7F8949C91292B85
:100950002C938FBFE3E9F0E02491EFE7F0E084917E
:100960008823C9F090E0880F991FFC01E859FF4FD8
:10097000A591B4918E589F4FFC01459154919FB71A
:10098000F8943C91822F809583238C93DA01EC912B
:100990002E2B2C939FBF87EB90E0909303018093C5
:1009A000020180916900837F886080936900E99AE1
:1009B000E0912402F091250282E08083E091200200
:1009C000F09121021082E0912202F091230280E155
:1009D000808310922C02E0912802F091290286E097
:1009E0008083E0912602F0912702808180618083DC
:1009F000E0912602F0912702808188608083E09157
:100A00002602F0912702808180688083E09126028F
:100A1000F091270280818F7D808351EBE52E50E09D
:100A2000F52E30910A02F7019491FE012491F8010C
:100A30008491882309F43CC0992339F1933091F0D3
:100A400038F49130A9F0923001F594B59F7D12C031
:100A5000973091F09830A1F09430B9F490918000E3
:100A60009F7D03C0909180009F77909380000DC080
:100A700094B59F7794BD09C09091B0009F7703C053
:100A80009091B0009F7D9093B00090E0880F991FE7
:100A90008E589F4FFC01A591B4918FB7F8949C910B
:100AA000311103C02095292301C0292B2C938FBF1E
:100AB0008091060290910702A0910802B09109026C
:100AC000892B8A2B8B2B09F4ADC1609102027091A6
:100AD000030280910402909105020E9457082DE8BC
:100AE00037E94EE050E40E940C0920E030E04AE78C
:100AF00054E40E94B4076093FE017093FF01809359
:100B000000029093010285E291E00E94330260911D
:100B1000FA017091FB018091FC019091FD0142E08E
:100B20000E94760281E391E00E9433020E949200CB
:100B30004AE00E94350282E291E00E94210283E3B2
:100B400091E00E9433028090020290900302A090F4
:100B50000402B0900502B7FE0CC08DE20E9487002F
:100B600066277727CB01681979098A099B094AE02A
:100B700003C04AE0C501B4010E94350282E291E05F
:100B80000E9421028AE391E00E94330260910202F6
:100B90007091030280910402909105020E9457080F
:100BA0002DE837E94EE050E40E940C0920E030E0E7
:100BB0004AE754E40E94B40743E050E00E944A032D
:100BC0008FE491E00E943302609106027091070267
:100BD00080910802909109020E94550820E034E2B9
:100BE00044E759E40E94B40743E050E00E944A03FE
:100BF00084E691E00E943302609106027091070240
:100C000080910802909109020E94550820E034E288
:100C100044E759E40E94B40720E030E040E752E4A2
:100C20000E94B40746E050E00E944A0389E791E041
:100C30000E943302609106027091070280910802BF
:100C4000909109020E94550820E034E244E759E4FB
:100C50000E94B40720E030E040E752E40E94B4076D
:100C600020E030E040E752E40E94B40748E050E062
:100C70000E944A038CE891E00E9433026091FA01DD
:100C80007091FB018091FC019091FD010E9426086A
:100C90000E94550820E034E244E759E40E94B4077A
:100CA00043E050E00E944A0381EA91E00E9433024F
:100CB0006091FA017091FB018091FC019091FD011E
:100CC0000E9426080E94550820E034E244E759E4D7
:100CD0000E94B40720E030E040E752E40E94B407ED
:100CE00046E050E00E944A0386EB91E00E94330206
:100CF0006091FA017091FB018091FC019091FD01DE
:100D00000E9426080E94550820E034E244E759E496
:100D10000E94B40720E030E040E752E40E94B407AC
:100D200020E030E040E752E40E94B40748E050E0A1
:100D30000E944A0389EC91E00E943302609106020E
:100D40007091070280910802909109020E94550853
:100D500020E034E244E759E40E94B40720E030E0A8
:100D600040E752E40E94B40720E030E040E752E45C
:100D70000E94B4079B01AC0163EA73E082E19BE34C
:100D80000E94B40743E050E00E944A038FED91E0D7
:100D90000E9433026091020270910302809104026A
:100DA000909105020E9457082DE837E94EE050E483
:100DB0000E940C0920E030E04AE754E40E94B407A6
:100DC0004B015C016091FA017091FB018091FC0183
:100DD0009091FD010E9426080E94550820E034E20F
:100DE00044E759E40E94B40720E030E040E752E4D1
:100DF0000E94B40720E030E040E752E40E94B407CC
:100E00009B01AC01C501B4010E94B40743E050E06E
:100E10000E944A03109206021092070210920802E2
:100E2000109209020E941702FCCDE4E1F2E0138265
:100E3000128288EE93E0A0E0B0E084839583A683DD
:100E4000B78388E091E09183808385EC90E095877B
:100E5000848784EC90E09787868780EC90E0918B84
:100E6000808B81EC90E0938B828B82EC90E0958B71
:100E7000848B86EC90E0978B868B118E128E138E6E
:100E8000148E08955058BB27AA270E945A070C9425
:100E9000CD080E94BF0838F00E94C60820F039F43F
:100EA0009F3F19F426F40C94BC080EF4E095E7FB80
:100EB0000C94B608E92F0E94DE0858F3BA176207AF
:100EC00073078407950720F079F4A6F50C940009C0
:100ED0000EF4E0950B2EBA2FA02D0B01B901900155
:100EE0000C01CA01A0011124FF27591B99F0593F99
:100EF00050F4503E68F11A16F040A22F232F342FE1
:100F00004427585FF3CF469537952795A795F0402E
:100F10005395C9F77EF41F16BA0B620B730B840B43
:100F2000BAF09150A1F0FF0FBB1F661F771F881FFB
:100F3000C2F70EC0BA0F621F731F841F48F4879553
:100F400077956795B795F7959E3F08F0B0CF939545
:100F5000880F08F09927EE0F9795879508950E94BE
:100F6000920808F481E008950E94C8070C94CD0807
:100F70000E94C60858F00E94BF0840F029F45F3F65
:100F800029F00C94B60851110C9401090C94BC087A
:100F90000E94DE0868F39923B1F3552391F3951B62
:100FA000550BBB27AA2762177307840738F09F5F8A
:100FB0005F4F220F331F441FAA1FA9F335D00E2EF7
:100FC0003AF0E0E832D091505040E695001CCAF764
:100FD0002BD0FE2F29D0660F771F881FBB1F261727
:100FE00037074807AB07B0E809F0BB0B802DBF01FE
:100FF000FF2793585F4F3AF09E3F510578F00C94CD
:10100000B6080C9401095F3FE4F3983ED4F386954B
:1010100077956795B795F7959F5FC9F7880F911DED
:101020009695879597F90895E1E0660F771F881FD9
:10103000BB1F621773078407BA0720F0621B730B8C
:10104000840BBA0BEE1F88F7E09508950E94E6081E
:1010500088F09F5798F0B92F9927B751B0F0E1F079
:10106000660F771F881F991F1AF0BA95C9F714C029
:10107000B13091F00E940009B1E008950C9400098C
:10108000672F782F8827B85F39F0B93FCCF3869562
:1010900077956795B395D9F73EF4909580957095BF
:1010A00061957F4F8F4F9F4F0895E89409C097FB3C
:1010B0003EF490958095709561957F4F8F4F9F4F2F
:1010C0009923A9F0F92F96E9BB279395F695879573
:1010D00077956795B795F111F8CFFAF4BB0F11F436
:1010E00060FF1BC06F5F7F4F8F4F9F4F16C08823DD
:1010F00011F096E911C0772321F09EE8872F762F13
:1011000005C0662371F096E8862F70E060E02AF053
:101110009A95660F771F881FDAF7880F969587953F
:1011200097F90895990F0008550FAA0BE0E8FEEF14
:1011300016161706E807F907C0F012161306E4079B
:10114000F50798F0621B730B840B950B39F40A2694
:1011500061F0232B242B252B21F408950A2609F472
:10116000A140A6958FEF811D811D089597F99F6776
:1011700080E870E060E008959FEF80EC089500241F
:101180000A941616170618060906089500240A94EC
:1011900012161306140605060895092E0394000C72
:1011A00011F4882352F0BB0F40F4BF2B11F460FF01
:1011B00004C06F5F7F4F8F4F9F4F089557FD90582A
:1011C000440F551F59F05F3F71F04795880F97FB0B
:1011D000991F61F09F3F79F08795089512161306C5
:1011E0001406551FF2CF4695F1DF08C016161706F4
:1011F0001806991FF1CF8695710561050894089529
:10120000E894BB2766277727CB0197F908950E94BA
:10121000920808F48FEF08950E941F090C94CD08DE
:101220000E94BF0838F00E94C60820F0952311F0F4
:101230000C94B6080C94BC0811240C9401090E946B
:10124000DE0870F3959FC1F3950F50E0551F629F24
:10125000F001729FBB27F00DB11D639FAA27F00D0F
:10126000B11DAA1F649F6627B00DA11D661F829F36
:101270002227B00DA11D621F739FB00DA11D621F1B
:10128000839FA00D611D221F749F3327A00D611D38
:10129000231F849F600D211D822F762F6A2F11241A
:1012A0009F5750409AF0F1F088234AF0EE0FFF1F4D
:1012B000BB1F661F771F881F91505040A9F79E3FA4
:1012C000510580F00C94B6080C9401095F3FE4F3DB
:1012D000983ED4F3869577956795B795F795E795FA
:1012E0009F5FC1F7FE2B880F911D9695879597F903
:1012F00008950E949208880B990B0895A1E21A2E76
:10130000AA1BBB1BFD010DC0AA1FBB1FEE1FFF1FA9
:10131000A217B307E407F50720F0A21BB30BE40BF9
:10132000F50B661F771F881F991F1A9469F7609540
:101330007095809590959B01AC01BD01CF010895FA
:10134000EE0FFF1F0590F491E02D099481E090E0ED
:0A135000F8940C94AB09F894FFCF59
:10135A001601160100000000AE0117014601F50151
:10136A007701550169016E616E00696E66006F76DC
:10137A0066000D0A00546F74616C2054696D653AF9
:10138A00002D005475726E733A00546F74616C20AC
:10139A0044697374616E636520286B6D293A004451
:1013AA00656C746154696D6520287365636F6E643A
:1013BA0073293A0044656C746154696D6520286D1F
:1013CA00696E75746573293A0044656C7461546971
:1013DA006D652028686F757273293A00546F7461BD
:1013EA006C54696D6520287365636F6E6473293A5E
:1013FA0000546F74616C54696D6520286D696E754F
:10140A00746573293A00546F74616C54696D652070
:10141A0028686F757273293A0043757272656E7423
:10142A0020537065656420286B6D2F68293A004146
:10143A0076657261676520537065656420286B6DF7
:06144A002F68293A0000A2
:00000001FF
